:020000040800F2
:1000000000000520A1610008CF230008D1230008CB
:10001000D3230008D5230008D723000800000000E0
:10002000000000000000000000000000D9230008CC
:10003000DB23000800000000DD230008DF230008A8
:10004000F1610008F1610008F1610008F161000848
:10005000F1610008F1610008F1610008F161000838
:10006000F1610008F1610008F1610008F161000828
:10007000F1610008F1610008F1610008F161000818
:10008000F1610008F1610008F1610008F161000808
:10009000F1610008F1610008F1610008F1610008F8
:1000A000F1610008F1610008F1610008F1610008E8
:1000B000E9230008F1610008F1610008F16100081E
:1000C000F1610008F1610008F1610008F1610008C8
:1000D000F1610008F1610008F1610008F1610008B8
:1000E000F1610008F1610008F1610008F1610008A8
:1000F000F1610008F1610008F1610008F161000898
:10010000F1610008F1610008F1610008F161000887
:10011000F1610008F1610008F1610008F161000877
:10012000F1610008F1610008F1610008F161000867
:10013000F1610008F1610008F1610008F161000857
:10014000F1610008F1610008F1610008F92300087D
:10015000F1610008F1610008F1610008F161000837
:10016000F1610008F1610008F1610008F161000827
:10017000F1610008F1610008F16100080000000071
:10018000F1610008F1610008F1610008F161000807
:10019000F1610008F1610008F1610008F1610008F7
:1001A000F1610008F1610008F1610008F1610008E7
:1001B000F1610008F1610008F1610008F1610008D7
:0801C000F1610008F161000883
:1001D000044B05481B1A062B02D9044B03B11847E0
:1001E000704700BFF3010020F00100200000000074
:1001F00005490648091A891001EBD171491002D04E
:10020000034B03B118477047F0010020F0010020B4
:100210000000000010B5064C237843B9FFF7D8FF63
:10022000044B13B10448AFF300800123237010BDC9
:10023000F001002000000000F461000808B5084B40
:100240001BB108490848AFF300800848036813B998
:10025000BDE80840CCE7064B002BF9D09847F7E7FC
:1002600000000000F4010020F4610008F00100200B
:100270000000000070B50F4E0F4D761BB61018BF72
:10028000002405D0013455F8043B9847A642F9D123
:100290000A4E0B4D761B05F0ADFFB61018BF0024BB
:1002A00006D0013455F8043B9847A642F9D170BDF9
:1002B00070BD00BF5464000854640008586400080E
:1002C00054640008024B0146186800F03BB900BFB7
:1002D00000000020024B0146186800F0EBB800BF98
:1002E00000000020844641EA000313F003036DD1AF
:1002F000403A41D351F8043B40F8043B51F8043BE9
:1003000040F8043B51F8043B40F8043B51F8043BEF
:1003100040F8043B51F8043B40F8043B51F8043BDF
:1003200040F8043B51F8043B40F8043B51F8043BCF
:1003300040F8043B51F8043B40F8043B51F8043BBF
:1003400040F8043B51F8043B40F8043B51F8043BAF
:1003500040F8043B51F8043B40F8043B51F8043B9F
:1003600040F8043B51F8043B40F8043B51F8043B8F
:1003700040F8043B403ABDD2303211D351F8043B2F
:1003800040F8043B51F8043B40F8043B51F8043B6F
:1003900040F8043B51F8043B40F8043B103AEDD2DE
:1003A0000C3205D351F8043B40F8043B043AF9D22F
:1003B000043208D0D2071CBF11F8013B00F8013B02
:1003C00001D30B8803806046704700BF082A13D30F
:1003D0008B078DD010F003038AD0C3F10403D21A27
:1003E000DB071CBF11F8013B00F8013B80D331F85B
:1003F000023B20F8023B7BE7043AD9D3013A11F8DB
:10040000013B00F8013BF9D20B7803704B78437045
:100410008B7883706046704770B4860746D0541E50
:10042000002A41D0CAB2034602E014F1FF343BD3A4
:1004300003F8012B9D07F8D1032C2ED9CDB245EA44
:1004400005250F2C45EA054519D903F1100226466A
:10045000103E0F2E42F8105C42F80C5C42F8085C2B
:1004600042F8045C02F11002F2D8A4F1100222F06A
:100470000F0204F00F041032032C13440DD91E4652
:100480002246043A032A46F8045BFAD8221F22F0D7
:1004900003020432134404F003042CB1C9B21C4417
:1004A00003F8011B9C42FBD170BC70471446034605
:1004B000C2E700BF91B151F8043C0439002BB8BF2A
:1004C000C9181F4B1A68FAB18A4230B40AD90868B1
:1004D0000C18A24226D04A60196030BC70478B428B
:1004E00003D81A465368002BF9D1146815198D42A8
:1004F0000DD006D808680C189C4219D04B6051608A
:10050000EBE70C230360E8E74A601960704709686D
:100510000C44111999421460DFD10ACB0C4453608A
:100520001460DAE7146852684A6020440860D3E730
:100530001C685B684B60204408605160CDE700BFD9
:100540000C02002070B5CC1C24F0030408340C2CE1
:1005500038BF0C24002C06463BDBA14239D8274D7E
:10056000296851B10A68121B04D436E01A68121BBC
:100570001AD519464B68002BF8D16968002937D085
:100580002146304600F006F9431C22D0C31C23F05C
:100590000305A84205D0291A304600F0FBF80130C7
:1005A00017D02C602B4604E00B2A0DD91A60134497
:1005B0001C6003F10B0020F007001A1D821A02D004
:1005C0005142995070BD70BD8B420ED05A684A603E
:1005D000EFE70C233360002070BD0B2A03D84A6874
:1005E0000B462A60E5E70B46E0E70A460B46F8E7CC
:1005F000304600F0CFF86860C2E700BF0C02002070
:100600000EB410B5044683B018B183690BB900F07D
:10061000CBF906A803460190059AA168204600F090
:1006200071FA03B0BDE8104003B070470FB410B5C5
:100630000A4B1C6882B024B1A36913B9204600F0AC
:10064000B3F905A803460190049AA168204600F07A
:1006500059FA02B0BDE8104004B070470000002015
:1006600010B5044682B028B183691BB9019100F02E
:100670009BF90199A268204602B0BDE8104000F045
:1006800069BD00BF38B5084B1C68054624B1A36995
:1006900013B9204600F088F92946A2682046BDE833
:1006A000384000F057BD00BF0000002000000000EF
:1006B000F8B5144B1C68A36B05461BB100221D61E5
:1006C0005A61F8BD1820FFF7FDFD01220023A06349
:1006D000C0E9042343F20E3303800B2383810522F8
:1006E000034642814AF6CD3741F234264EF26D641C
:1006F0004DF6EC61002247808680C48001811D6137
:100700005A61F8BD00000020F8B51F4B1C68A16BB2
:1007100091B10A691D484B691D4C00FB02F004FBB6
:100720000300A2FB04230132034443F1000323F03E
:100730000040C1E90423F8BD1820FFF7C3FD10A352
:10074000D3E900230146A0630126002743F20E35BA
:100750004AF6CD34C0E9046741F234204EF26D67A9
:100760004DF6EC660D804C8005250B248880CF80EB
:1007700006480E814D818C81C1E90423F8BD00BF7C
:100780002E7F954C2DF45158000000202DF4515827
:100790002D7F954C38B5074C00230546084623604D
:1007A00001F0B8FA431C00D038BD2368002BFBD001
:1007B0002B6038BD681A002000207047014900F006
:1007C00039B900BFF91500080020704770B54A1EFE
:1007D000682505FB02F50E4605F17401FFF7B2FE30
:1007E000044640B100210C30666005F168022160CA
:1007F000A060FFF711FE204670BD00BF204B70B512
:100800001D68AB6906465BB348356B68AC68013B55
:1008100005D521E0013B5A1C04F168041CD0B4F951
:100820000C20002AF6D100254FF6FF720123E28149
:10083000A38165662560A560656025616561A56128
:100840002946082204F15C00FFF7E6FD6563A56315
:10085000A564E564204670BD286828B10546D4E744
:10086000284600F00FF8CFE704213046FFF7AEFF2F
:1008700028600028F2D10C2304463360EAE700BF69
:10088000186300083D4B3E491A682DE9F04F90422D
:100890004FF000038364C364036508BF012383B082
:1008A00008BF836181620746FFF7A8FF786038467A
:1008B000FFF7A4FFB8603846FFF7A0FF7D68F86037
:1008C00000240423AB812C606C60AC606C66EC810E
:1008D0002C616C61AC61214605F15C000822FFF7D8
:1008E0009BFDBE68DFF89CB0DFF89CA0DFF89C9011
:1008F000DFF89C80C5F824B001230922C5F828A0A0
:10090000C5F82C90C5F830802D622146F381B28164
:1009100034607460B460746634617461B46106F10B
:100920005C0008220193FFF777FDFD683662122014
:100930000222C6F824B0C6F828A0C6F82C90C6F843
:1009400030802146A881EA812C606C60AC606C66C6
:100950002C616C61AC6105F15C000822FFF75CFD65
:10096000019B2D62C5F824B0C5F828A0C5F82C90CD
:10097000C5F83080BB6103B0BDE8F08F1863000894
:10098000BD0700083D12000865120008A11200080A
:10099000C1120008024B0349186800F04BB800BFB1
:1009A00018630008F9150008836903B96AE77047FE
:1009B000704700BF704700BF704700BF704700BF5F
:1009C000024B0349186800F00FB800BF0000002078
:1009D000C9070008024B0349186800F005B800BFBA
:1009E00000000020B90700082DE9F04110F1480788
:1009F0001BD0884600267D68BC68013D0FD4A389C2
:100A0000012B05F1FF3506D9B4F90E30013320462C
:100A100001D0C04706436B1C04F16804EFD13F6866
:100A2000002FE8D13046BDE8F0813E463046BDE8B3
:100A3000F08100BF2DE9F84310F148071FD0884628
:100A400006464FF000097D68BC68013D11D4A389BA
:100A5000012B05F1FF3508D9B4F90E3001332146D9
:100A6000304602D0C04749EA00096B1C04F1680413
:100A7000EDD13F68002FE6D14846BDE8F883B9467E
:100A80004846BDE8F88300BF9368013B002B10B4D3
:100A9000936008DBCCB21368581C106019702046B4
:100AA0005DF8044B70479469A34202DBCCB20A2C78
:100AB000F1D15DF8044B00F007BC00BF93B1F8B56D
:100AC00014460F460646D51801E0AC4208D03A4617
:100AD00014F8011B3046FFF7D7FF431CF5D1F8BDD2
:100AE0000020F8BD00207047936810B5144613B974
:100AF0005360184610BD00F0C3FD0023A36063607F
:100B000010BD00BF2DE9F04F9DB0894614460393F8
:100B1000824618B18369002B00F00A818A4B9945FF
:100B200000F00C81894B994500F00B81884B994569
:100B300008BFDAF80C90B9F80C30180740F1EE80D5
:100B4000D9F81030002B00F0E98030238DF82A30DE
:100B50002378804E0021202209918DF82920012739
:100B6000002B00F08480252B254603D117E0252B90
:100B700000F0858015F8013F002BF8D1B5EB040B90
:100B800075D022465B4649465046FFF797FF013035
:100B90006DD0099B2A785B440993002A67D0002313
:100BA0004FF0FF3201350493079306938DF85330CD
:100BB0001A93059204E0049A07FA03F3134304938B
:100BC00029780522304600F05BFF2C46831B013557
:100BD0000028F0D1049BD90644BF20228DF8532071
:100BE00021781A0744BF2B228DF853202A2969D077
:100BF000A1F13002092A0BD8079B14F8011F03EB5F
:100C0000830302EB4303A1F13002092AF5D90793CC
:100C10002E293FD0504D0322284600F031FF38B135
:100C2000049B401B402202FA00F00343013404936A
:100C300021784A488DF828100622013400F020FF60
:100C4000002849D0464BF3B103AB00934A46454BCD
:100C500004A95046AFF300808046B8F1FF3F06D0AC
:100C6000099B434409932378002B7FF47CAFB9F8A8
:100C70000C305B0659D409981DB0BDE8F08FB5EB78
:100C8000040B8CD07DE7039B073323F00703083365
:100C90000393E5E761782A2904F1010026D0A1F148
:100CA00030020023092A05930446B3D814F8011F23
:100CB00003EB830302EB4303A1F13002092AF5D9C8
:100CC0000593A7E7039A11680432002903921FDBFA
:100CD0000791617801349BE703AB00934A46214BAF
:100CE00004A9504600F0E6F88046B6E7039B1A6870
:100CF0000592002A03F104030393B8BF4FF0FF32BB
:100D000004F10203AEBFA178A17805921C4681E7E9
:100D1000494243F0020307910493DAE749465046FB
:100D200000F04AFB00283FF410AF4FF0FF30A3E77C
:100D3000FFF73AFE044B99457FF4F4AEDAF80490DD
:100D4000F9E6DAF80890F6E65C6300083C63000810
:100D50001C63000810640008186400081C64000884
:100D600000000000BD0A000810B4044C13460A46F7
:100D7000014620685DF8044BFFF7C4BE0000002068
:100D80002DE9F0470C4691460A698968DDF8208014
:100D90008A42B8BF0A46C9F8002094F843100646B4
:100DA0001F4611B10132C9F80020236899065DD5AC
:100DB000D9F800200232C9F80020236813F0060F8A
:100DC00019461DD1E1688A1A002AD8BF194617DDD5
:100DD00004F1190A002505E0E368D9F800209B1A00
:100DE000AB420CDD0123524639463046C047013044
:100DF00005F10105F0D14FF0FF30BDE8F087216823
:100E000094F84330003318BF01238A060AD5E1184D
:100E10005A1C302081F84300224494F8451082F88F
:100E20004310023304F1430239463046C0470130D3
:100E3000E1D0236803F00603042B29D0A3682269BC
:100E40009342C8BF4FF0000930DD9B1A99441A3411
:100E5000002501E04D4529D0012322463946304680
:100E6000C047013005F10105F4D1C4E713F0060FC6
:100E700008D1E168D9F800208A1A002AD8BF19469B
:100E8000A6DCBDE794F84330003318BF0123C9E75F
:100E9000D9F80010E068A3682269A0EB0109934229
:100EA00029EAE979D1DCB9F1000FD0D10020BDE801
:100EB000F08700BF2DE9F0430C46097E85B06E290E
:100EC000064617460C98984604F1430C55D00FD8A7
:100ED000632900F01B8100F2D68000295CD05829DC
:100EE00040F0E88084F845102268DFF860E213E003
:100EF000732900F0FD8000F289806F2900F0E48002
:100F0000702940F0D780226842F0200222607823C6
:100F1000DFF83CE284F845300368150603F104016C
:100F200000F1FF8055064BBF1B881B680160016004
:100F3000D00744BF42F020022260002B40F0958091
:100F4000226822F0200222601021002284F843202F
:100F50006068A0600028C0F28D80226822F0040240
:100F60002260002B67D1002840F086806546082962
:100F70006FD0ACEB0503236111E023681A0600F182
:100F8000D38013F0400F0368626903F1040101602C
:100F90001B6814BF1A801A60002365462361CDF8D0
:100FA00000803B4603AA21463046FFF7E9FE0130A8
:100FB00021D02A46236939463046C04701301AD02D
:100FC0002368E06813F0020F039B19D0C21A002AAD
:100FD00016DD04F11909002504E0E068039BC21A3C
:100FE000AA420DDD01234A4639463046C04701304A
:100FF00005F10105F1D14FF0FF3005B0BDE8F083F8
:101000009842B8BF184605B0BDE8F08375295BD09B
:1010100078294FD122687AE76168A1602D200029E4
:10102000C3F1000384F8430021DB22F00402DFF85F
:101030001CE122600A216546B3FBF1F201FB12308C
:1010400013461EF8002005F8012D002BF4D10829C5
:101050008FD12368D9078CD5626823699A4288DCCE
:10106000302305F8013C013D83E710216DE7DFF8EF
:10107000DCE00A21002BDED19EF8003084F84230FB
:1010800004F1420573E7642901D0692912D122686D
:101090000368150603F1040152D455064BBFB3F99A
:1010A00000301B6801600160002BB5DBDFF89CE0BD
:1010B0000A214DE7012384F84210236104F142051F
:1010C000002384F843306AE723681A0633D413F008
:1010D000400F036803F1040215BF1B881B68026000
:1010E00002606F2914BF0A210821DFF860E02CE7B5
:1010F00003686268191D01601D680021284600F020
:10110000BFFC00B3401B60602061D9E703681A6828
:10111000191D0123016004F1420584F84220236176
:10112000CEE701601B6803E703686269191D01606F
:101130001B681A6030E703681A1D02601B68D0E75D
:1011400001601B68B0E76068DEE700BF2464000848
:101150003864000870B50D461446064608B1836928
:101160000BB3154B9C4223D0144B9C4222D0144B02
:101170009C4208BFF468A368013B002BA36005DB19
:10118000E8B223685A1C22601D7070BDA2699342A8
:1011900002DBE8B20A28F4D1224629463046BDE8EF
:1011A000704000F091B8FFF7FFFB034B9C42DBD18E
:1011B0007468E0E7B468DEE75C6300083C6300083D
:1011C0001C630008194B70B51D6806460C460DB12E
:1011D000AB690BB3164B9C4224D0164B9C4223D0D8
:1011E000154B9C4208BFEC68A368013B002BA36031
:1011F00005DBF0B223685A1C22601E7070BDA26924
:10120000934202DBF0B20A28F4D122463146284646
:10121000BDE8704000F058B82846FFF7C5FB044B06
:101220009C42DAD16C68DFE7AC68DDE700000020A3
:101230005C6300083C6300081C63000810B50C46A2
:10124000B1F90E1000F0F8FC002803DB636D0344D5
:10125000636510BDA38923F48053A38110BD00BF33
:10126000002070472DE9F0411646B1F90C201F46C9
:10127000D3050C46054607D500220223B1F90E100E
:1012800000F076FBB4F90C20B4F90E1022F4805271
:10129000A2813B4632462846BDE8F04100F076B8D0
:1012A00010B50C46B1F90E1000F062FBA389421C88
:1012B0000EBF23F4805343F480536065A38110BDB7
:1012C000B1F90E1000F0F2B8F8B50D461446064616
:1012D00010B18369002B42D0254B9C4244D0254B52
:1012E0009C4243D0244B9C4208BFF468A389A26966
:1012F000A2601A0722D5236903B322686169D31A51
:10130000EDB28B422F4621DA0133A168501C01391E
:10131000A1602060157062699A4206D0A389DB073C
:1013200001D50A2D01D03846F8BD2146304600F0DF
:1013300063F90028F7D04FF0FF37F4E72146304635
:1013400000F03AF80028F6D12369D6E72146304666
:1013500000F052F90028EED122680123D5E7FFF70B
:1013600023FB034B9C42BAD17468BFE7B468BDE766
:101370005C6300083C6300081C630008024B0A46DB
:1013800001461868FFF7A0BF0000002070B50D46A9
:10139000084C114606461A4628460023236000F0F2
:1013A000C7FC431C00D070BD2368002BFBD033600A
:1013B00070BD00BF681A0020384B70B51D68064626
:1013C0000C4615B1AB69002B42D0354B9C4245D041
:1013D000344B9C4258D0344B9C4208BFEC68B4F963
:1013E0000C2093B219070CD52069A8B113F00102A3
:1013F0001ED0636900225B42A361A260F0B10020AD
:1014000070BDDD0642D558072AD4206942F0080392
:10141000A3819BB20028E9D103F42072B2F5007FCA
:10142000E4D03046214600F0E7FAA3892069DDE7E1
:10143000990758BF6269A2600028E0D1B4F90C3066
:101440001A06DDD543F04003A3814FF0FF3070BD95
:101450002846FFF7A9FA124B9C42B9D16C68BEE747
:10146000616B51B104F14403994204D03046FFF757
:1014700021F8B4F90C200023636300232069636022
:1014800022F024022060C1E7AC68A8E742F04002E5
:10149000092333604FF0FF30A28170BD00000020AF
:1014A0005C6300083C6300081C63000838B5074C07
:1014B000002305460846236000F004FC431C00D0CE
:1014C00038BD2368002BFBD02B6038BD681A002084
:1014D0008B891A072DE9F0410D46804633D44A68BE
:1014E000002A67DDEC6A002C45D00022D8F80060A5
:1014F000C8F8002013F4805260D06A6D5F0705D5EC
:1015000069686B6B521A0BB12B6CD21A0023296AD3
:101510004046A047441C39D0AB892A692A60DB04C5
:101520004FF000026A6043D4696BC8F8006011B3E1
:1015300005F14403994202D04046FEF7BBFF00206C
:101540006863BDE8F0810E69AEB10C680E60980763
:101550000CBF4B690023A41B8B600AE02346324674
:10156000AF6A296A4046B8470028A4EB0004064445
:1015700004DD002CF2DC0020BDE8F081AB8943F0F3
:101580004003AB814FF0FF30BDE8F081D8F8002078
:101590001D2AF3D8174BD340DB4313F00103EDD1E1
:1015A000A9892C696B60C9042C60BDD5002ABBD108
:1015B0006865B9E70A6C002A94DCDCE70123296A34
:1015C0004046A047431C024602D0AB89EC6A95E72F
:1015D000D8F80030002BF8D01D2B01D0162B02D1EB
:1015E000C8F80060C7E7AB8943F04003AB81BDE8B2
:1015F000F08100BF010040200B6933B310B50446F1
:1016000082B008B18369ABB1114B994219D0114B2B
:10161000994218D0104B994208BFE168B1F90C30DB
:1016200013B9002002B010BD204602B0BDE8104042
:10163000FFF74EBF0191FFF7B7F90199044B9942AB
:10164000E5D16168EAE7A168E8E70020704700BFDC
:101650005C6300083C6300081C63000820B1054B74
:1016600001461868FFF7C8BF034B04491868FFF725
:10167000E1B900BF0000002018630008F915000858
:101680009368002B73D02DE9F04F8B8983B00C4603
:1016900019070090164626D5226922B313F00200DE
:1016A00035682CD04FF00009B04FC846B246B84557
:1016B00043464A4628BF3B460098B8F1000F50D039
:1016C000216AA66AB047002858DDDAF808301B1AEC
:1016D0008144A8EB0008CAF80830002BE7D10020AD
:1016E00003B0BDE8F08F21460098FFF765FE0028A3
:1016F00040F03381A389356813F00200D2D113F092
:10170000010945D14F46019637B39A05D4F80880B0
:1017100040F183804745C346C0F0AB8013F4906F1F
:1017200040F0AC802068BA465A46494600F0F8F9C5
:10173000A2682368A2EB08025B44A2602360019ABE
:101740009368A3EB0A03D144A7EB0A079360002B2D
:10175000C5D0A389002FD8D1D5F800906F6808357F
:10176000D2E7D5F80090D5F8048008359FE700202F
:10177000704721460098FFF73FFF70B3B4F90C3073
:1017800043F040034FF0FF30A38103B0BDE8F08F7A
:10179000814633464E46A8469A464D464EB380B3E0
:1017A000206823696269B145CB4628BFB346984299
:1017B0005F4604D9A36813449B4500F3A680934574
:1017C0004BDB1346A76A216A00982A46B847071ED2
:1017D000D4DDB9EB0709CCD00120DAF80830DB1BE7
:1017E0003D44F61BCAF80830002B3FF478AF002EBA
:1017F000D5D108F1080313E9600098460833002E9C
:10180000F9D032460A21284600F03AF9002800F0C3
:10181000A1800130A0EB0509C2E720682369984246
:1018200002D863699F425DD2B84528BFB846424698
:10183000494600F075F9A3682268A3EB0803424407
:10184000A36022600BB1C24679E721460098FFF7FA
:10185000D3FE002892D1C24671E75A46294600F0CD
:101860005FF9A2682368A2EB0B025B44A2602360CD
:10187000AFE72068B846BA46BB4655E762692068BC
:10188000216902EB4208A0EB010A08EBD8780AF1C3
:1018900001004FEA680838444045424684BF80460C
:1018A00042465B0544D511460098FEF74BFE834641
:1018B000002855D052462169FEF714FDA38923F470
:1018C000906343F08003A3810BEB0A00A8EB0A03AB
:1018D000C4F810B0C4F814802060A360B846BA46BB
:1018E000BB4621E76FF00041B94228BF39464A465E
:1018F00091FBF3F10098A66A03FB01F3216AB0475C
:10190000B0F1000A3FF71BAF38E71A4629460193AA
:1019100000F006F92268019B00981A4422602146D3
:10192000FFF76AFE019B00287FF428AF1F4650E7AF
:10193000009800F059F983460028C5D1009D21691F
:101940002846FEF7B7FDB4F90C300C2223F08003D3
:101950002A6015E706F1010922E74FF0FF30BFE6E4
:10196000009A0C231360B4F90C3009E700FCFF7FE8
:1019700070B50D46084C114606461A462846002307
:10198000236000F0B7F9431C00D070BD2368002B22
:10199000FBD0336070BD00BF681A002070B50C46E4
:1019A000B1F90E10002990B015461E4613DB01AAAE
:1019B00000F058F900280EDB029A02F47042A2F5FA
:1019C0000052B2FA82F252094FF480630020326072
:1019D0002B6010B070BDA38900221B06326004D5B5
:1019E000402300202B6010B070BD4FF480630020B6
:1019F0002B6010B070BD00BF8A8992070B4606D5D8
:101A000001F1470201211A601A6159617047F0B56E
:101A100083B001AB6A460C460546FFF7BFFF00994D
:101A200006462846FEF78EFDB4F90C30D0B1019A77
:101A3000124F0099AF6243F08003A38120602061C0
:101A400061611AB93343A38103B0F0BD2846B4F9EC
:101A50000E1000F01BF9B4F90C300028F2D043F05E
:101A60000103EFE79A05EFD404F1470243F00203C4
:101A70000121A381226022616161E5E7BD070008C1
:101A800001F0FF01102A2BDB10F0070F08D010F82F
:101A9000013B013A8B422DD010F0070F42B3F6D133
:101AA000F0B441EA012141EA014122F007047FF04C
:101AB00000070023F0E80256083C85EA010586EAA3
:101AC000010685FA47F5A3FA87F586FA47F6A5FADF
:101AD00087F68EB9EED1F0BC01F0FF0102F00702EB
:101AE00032B110F8013B013A83EA010313B1F8D196
:101AF0000020704701387047002D06BF3546033877
:101B0000073815F0010F07D1013015F4807F02BFAF
:101B1000013015F4C03F0130F0BC0138704700BF00
:101B20008842F0B50DD98B1898420AD28418002A41
:101B300051D0224613F8014D02F8014D9942F9D1D6
:101B4000F0BD0F2A48D941EA00039B0746D100F1B6
:101B5000100401F11003154653F8106C44F8106C92
:101B600053F80C6C44F80C6C53F8086C44F8086C8F
:101B7000103D53F8046C44F8046C0F2D03F110036E
:101B800004F11004E8D8A2F1100323F00F0302F0CF
:101B90000F0E1033BEF1030F1944034421D91E1F49
:101BA0000D467446043C55F8047B46F8047F032C2C
:101BB000F8D8AEF1040424F003040434214423448F
:101BC00002F0030262B1013B0A4411F8014B03F831
:101BD000014F8A42F9D1F0BD0346F3E70346F2E72D
:101BE000F0BD7246EEE700BFF8B51446F9B1C2B1D8
:101BF00006460D4600F05CF8844201D82846F8BD40
:101C000021463046FEF79EFC074670B12246294623
:101C1000FEF768FB294630463D46FEF74BFC28465A
:101C2000F8BDFEF747FC2546E8E70546E6E711461E
:101C3000BDE8F840FEF786BC70B50D46084C11466D
:101C400006461A4628460023236000F05BF8431C32
:101C500000D070BD2368002BFBD0336070BD00BF87
:101C6000681A002038B50B46074C05461146184641
:101C70000023236000F02EF8431C00D038BD2368F9
:101C8000002BFBD02B6038BD681A002038B5074CFC
:101C9000002305460846236000F024F8431C00D0CA
:101CA00038BD2368002BFBD02B6038BD681A00209C
:101CB00051F8040C0028A0F10400BCBF0B58C01858
:101CC000704700BF024B58221A604FF0FF30704738
:101CD000681A0020024B58221A604FF0FF307047FC
:101CE000681A0020024B58221A600020704700BF7B
:101CF000681A0020024B58221A604FF0FF307047DC
:101D0000681A0020024B58221A604FF0FF307047CB
:101D1000681A0020044A05491368002B08BF0B46C7
:101D2000184410601846704714020020701A0020F2
:101D3000024B58221A604FF0FF307047681A00209B
:101D400053B94AB9002908BF00281CBF4FF0FF3122
:101D50004FF0FF3000F07AB9ADF1080C6DE904CE18
:101D600000F006F8DDF804E0DDE9022304B0704776
:101D70002DE9F0478C460D460446089E002B51D1B4
:101D80008A4217466DD9B2FA82FEBEF1000F0BD01F
:101D9000CEF1200C01FA0EF520FA0CFC02FA0EF737
:101DA0004CEA050C00FA0EF44FEA174A250CBCFB6E
:101DB000FAF81FFA87F90AFB18CC45EA0C4508FB2C
:101DC00009F3AB420AD9ED1908F1FF3280F0238103
:101DD000AB4240F22081A8F102083D44ED1AA4B2C2
:101DE000B5FBFAF00AFB105544EA054400FB09F97B
:101DF000A14509D9E41900F1FF3380F00A81A1451A
:101E000040F2078102383C44A4EB090440EA084050
:101E10000021002E61D024FA0EF400233460736098
:101E2000BDE8F0878B4207D9002E54D0002186E808
:101E300021000846BDE8F087B3FA83F1002940F09D
:101E40008E80AB4202D3824200F2FA80841A65EBA4
:101E500003050120AC46002E3FD086E81010BDE8F7
:101E6000F08712B90127B7FBF2F7B7FA87FEBEF188
:101E7000000F34D1EB1B3A0C1FFA87FC0121B3FB96
:101E8000F2F8250C02FB183345EA03450CFB08F376
:101E9000AB4207D9ED1908F1FF3002D2AB4200F294
:101EA000D1808046ED1AA3B2B5FBF2F002FB1055CB
:101EB00043EA05440CFB00FCA44507D9E41900F1F2
:101EC000FF3302D2A44500F2B8801846A4EB0C04FC
:101ED00040EA08409DE731463046BDE8F087CEF144
:101EE000200405FA0EF307FA0EF720FA04F83A0C6C
:101EF00025FA04F448EA0308B4FBF2F14FEA184566
:101F000002FB11441FFA87FC45EA044501FB0CF370
:101F1000AB4200FA0EF409D9ED1901F1FF3080F05F
:101F20008A80AB4240F2878002393D44EB1A1FFAA7
:101F300088F5B3FBF2F002FB103345EA034500FBE2
:101F40000CF3AB4207D9ED1900F1FF386FD2AB4269
:101F50006DD902383D44EB1A40EA01418FE7C1F1E7
:101F6000200722FA07F88B4005FA01F448EA030338
:101F700020FA07FE4FEA134CFD404EEA040EB5FB73
:101F8000FCF94FEA1E440CFB19551FFA83F844EA8A
:101F9000054509FB08F4AC4202FA01F200FA01FA25
:101FA00008D9ED1809F1FF3043D2AC4241D9A9F16B
:101FB00002091D442D1B1FFA8EFEB5FBFCF00CFB25
:101FC00010554EEA054400FB08F8A04507D9E4186F
:101FD00000F1FF3529D2A04527D902381C4440EA38
:101FE0000940A4EB0804A0FB02894C45C6464D46B7
:101FF00015D312D056B1BAEB0E0364EB050404FA04
:1020000007F7CB401F43CC40376074600021BDE828
:10201000F0871846F8E69046E0E6C245EAD2B8EB0B
:10202000020E69EB03050138E4E72846D7E740468E
:1020300091E78146BEE7014678E702383C4445E730
:10204000084608E7A8F102083D442BE7704700BFA7
:102050002DE9F0418AB00024059406940794089471
:1020600009942F4B1A6B42F001021A631A6B02F0AB
:1020700001020092009A1A6B42F480721A631A6B82
:1020800002F480720192019A1A6B42F080021A6384
:102090001A6B02F080020292029A1A6B42F004025A
:1020A0001A631A6B02F004020392039A1A6B42F04D
:1020B00040021A631B6B03F040030493049B194F07
:1020C00022460221384601F05BFBDFF860802246A1
:1020D0008021404601F054FB134E224680213046B9
:1020E00001F04EFB02230593012506950794089401
:1020F00005A9384601F056FA8027059706950794FA
:10210000089405A9404601F04DFA059706950794F5
:10211000089405A9304601F045FA0AB0BDE8F081FF
:10212000003802400020024000180240000802402F
:1021300030B589B000240494059406940794019462
:10214000029403940F4D4FF080432B604DF2EF2328
:102150006B60AC6040F2CF73EB602C61AC612846E1
:1021600000F08CFB4FF48053049304A9284600F040
:10217000ABFB0194039401A9284600F013FC09B0BD
:1021800030BD00BF1C02002008B50368B3F1804FCA
:1021900000D008BD0221024801F0F8FAF9E700BFBB
:1021A0000020024030B5B5B03022002128A8FEF74B
:1021B00033F900242394249425942694279484228C
:1021C000214602A8FEF728F9204B1A6C42F08052F3
:1021D0001A641B6C03F080530093009B1C4B1A681D
:1021E00042F440421A601B6803F440430193019B90
:1021F000012328934FF48033299302252E954FF421
:1022000080032F93192330934FF4D8733193329571
:102210000923339328A800F0FBFB01F0C1FA0F2338
:102220002393249525944FF4A05326934FF4805381
:102230002793072123A800F027FE4FF400130293F1
:10224000219402A800F0D8FE35B030BD003802401D
:102250000070004030B5C1B005460C464FF48072A6
:1022600008496846FEF73EF8FF2005E02A7850400E
:102270001DF800001C460135631E002CF6D141B04C
:1022800030BD00BF0C62000838B58478012C06D040
:10229000022C16D0032C27D00024204638BDC57848
:1022A000012D07D0002DF5D100228021154801F025
:1022B00067FAF2E701228021124801F061FA2C4608
:1022C000EBE7C578012D08D0002DE3D10022802155
:1022D0000D4801F055FA0124DFE7012280210A4868
:1022E00001F04EFA2C46D8E7FEF70EFA074B83FBB7
:1022F0000023C417C4EB6314642303FB1404E4B287
:10230000CBE700BF00080240001802401F85EB51D8
:1023100000B585B06420FEF7CBF9284B03F5807239
:1023200092E8030002908DF80C10D3F80831019365
:1023300001F09AFAFFF736FFFFF78AFEFFF7F8FE83
:1023400001F0ECFA1E4800F02BF91BE01D4AD15CAD
:1023500004AA1A4402F80C1C01331A4A92789342D8
:10236000F4DB032101A8FFF775FF174B1B68013B46
:10237000144AD35C98420FD0134B1A6800211148BD
:10238000FEF74AF80F4B1B78AA2BFBD10D4B5B785D
:10239000552BF7D10223E0E71046FFF775FF8DF8C4
:1023A00007008DF80B00032101A8FFF753FF8DF8FC
:1023B0000C00052102A801F02DFDDDE70C620008EC
:1023C0001C020020041A00200012002070477047F1
:1023D000FEE7FEE7FEE7FEE770477047704708B587
:1023E00001F04EFA08BD000008B5024800F0F2F80E
:1023F00008BD00BF1C02002008B5024801F0DCFE49
:1024000008BD00BFFC04002082B00A4B1A6C42F0E9
:1024100080521A641A6C02F080520092009A5A6C30
:1024200042F480425A645B6C03F480430193019B45
:1024300002B07047003802400368B3F1804F00D00B
:10244000704700B583B003F50E331A6C42F00102F9
:102450001A641B6C03F001030193019B00221146D7
:102460001C2000F019F81C2000F046F803B05DF8BD
:1024700004FB00000649CB6823F4E0631B041B0C3B
:10248000000200F4E0600343024A1A43CA60704746
:1024900000ED00E00000FA0530B4144BDB68C3F334
:1024A0000223C3F10704042C28BF04241D1D062D9C
:1024B00013D9033B012505FA04F4013C214099405E
:1024C00005FA03F3013B13401943002807DB090118
:1024D000C9B2074B195430BC70470023EAE700F03B
:1024E0000F000901C9B2034B1954F4E700ED00E0F5
:1024F00000E400E014ED00E0002808DB420900F0F1
:102500001F00012303FA00F0014B43F8220070473B
:1025100000E100E00138B0F1807F0AD2064B58603C
:10252000F021064A82F823100020986007221A60E2
:1025300070470120704700BF10E000E000ED00E0B0
:1025400010B4036A046A24F001040462846924F06C
:10255000F00444EA021223F00A030B43826103628F
:102560005DF8044B704710B4036A23F01003036254
:102570008469036A24F4704444EA023223F0A0031D
:1025800043EA0113826103625DF8044B704783687C
:1025900023F07003194341F0070181607047000088
:1025A0000268D36843F00103D36002689168064B68
:1025B0000B40062B18BFB3F5803F03D0136843F0E0
:1025C0000103136000207047070001007047704747
:1025D0007047704710B5044603681A6912F0020F7D
:1025E00011D0DA6812F0020F0DD06FF002021A61FA
:1025F0000123037703689B6913F0030F79D0FFF77A
:10260000E6FF0023237723681A6912F0040F12D023
:10261000DA6812F0040F0ED06FF004021A61022380
:10262000237723689B6913F4407F68D02046FFF727
:10263000CEFF0023237723681A6912F0080F12D007
:10264000DA6812F0080F0ED06FF008021A61042346
:1026500023772368DB6913F0030F57D02046FFF779
:10266000B6FF0023237723681A6912F0100F12D0E7
:10267000DA6812F0100F0ED06FF010021A61082302
:1026800023772368DB6913F4407F46D02046FFF7A9
:102690009EFF0023237723681A6912F0010F03D0ED
:1026A000DA6812F0010F3FD123681A6912F0800F27
:1026B00003D0DA6812F0800F3DD123681A6912F452
:1026C000807F03D0DA6812F0800F3BD123681A694B
:1026D00012F0400F03D0DA6812F0400F39D12368AE
:1026E0001A6912F0200F03D0DA6812F0200F37D1E8
:1026F00010BDFFF76BFF2046FFF76AFF81E720461A
:10270000FFF764FF2046FFF763FF92E72046FFF7DD
:102710005DFF2046FFF75CFFA3E72046FFF756FF6B
:102720002046FFF755FFB4E76FF001021A6120461B
:10273000FFF72AFDB8E76FF080021A61204600F02B
:1027400064F9BAE76FF480721A61204600F05EF90E
:10275000BCE76FF040021A612046FFF73AFFBEE780
:102760006FF020021A61204600F04EF9C0E7000029
:1027700070B403683A4DA84214BF00250125B0F19A
:10278000804F14BF2A4645F00102AAB9354CA04239
:1027900014BF00240124344EB0420DD064B904F1BA
:1027A000804404F58234A04214BF0024012406F5BD
:1027B0000066B04200D01CB123F070034C68234384
:1027C000002A33D1274A904214BF00220122264C0E
:1027D000A0422BD052BB02F1804202F582329042DD
:1027E00014BF0022012204F50064A0421ED0EAB901
:1027F0001E4A904214BF0022012204F59A34A042DE
:1028000014D09AB91A4A904214BF0022012204F54A
:102810000064A0420AD04AB9164A904214BF00226E
:102820000122A4F59634A04200D01AB123F44073DB
:10283000CC68234323F080034A69134303608A680A
:10284000C2620A6882620C4B984214BF2B4645F064
:1028500001030BB10B6903630123436170BC704733
:102860000000014000080040000400400044014016
:10287000001800400020004000040140A8B110B53D
:10288000044690F83D305BB1022384F83D30211DB1
:102890002068FFF76DFF012384F83D30002010BD54
:1028A00080F83C30FFF7C8FDEEE70120704710B418
:1028B000846824F47F4442EA032319430C43846070
:1028C0005DF8044B7047000090F83C30012B64D059
:1028D00010B50446012380F83C30022380F83D30D7
:1028E000026890682E4B034093600B68402B4AD0DF
:1028F00013D9602B3DD01ED9702B28D0B3F5005FC3
:1029000030D1CB684A6889682068FFF7D0FF226819
:10291000936843F48043936024E0102B06D004D9DD
:10292000202B03D0302B01D01CE0DBB919462068E6
:10293000FFF72DFE16E0502B14D1CA6849682068B5
:10294000FFF7FEFD50212068FFF721FE0AE0CB686B
:102950004A6889682068FFF7AAFF2268936843F0F5
:1029600077039360012384F83D30002084F83C0015
:1029700010BDCA6849682068FFF7F5FD602120682E
:10298000FFF705FEEEE7CA6849682068FFF7D8FD43
:1029900040212068FFF7FBFDE4E70220704700BFFD
:1029A0008800FEFF90F83C30012B27D070B4012343
:1029B00080F83C30022380F83D3004686368A268E8
:1029C0000F4D104EAC4218BFB44203D123F4700334
:1029D0004D682B4323F070030D682B4322F08002D7
:1029E00089680A43636003689A60012380F83D3078
:1029F000002380F83C30184670BC704702207047B6
:102A0000000401400000014070477047704700001B
:102A1000002800F0DB8170B582B00446036813F033
:102A2000010F3AD0A24B9B6803F00C03042B2BD070
:102A30009F4B9B6803F00C03082B20D06368B3F511
:102A4000803F50D0002B54D1994B1A6822F4803229
:102A50001A601A6822F480221A606368002B5FD023
:102A600000F01AFF0546924B1B6813F4003F14D187
:102A700000F012FF401B6428F5D90320ABE18C4B1A
:102A80005B6813F4800FD9D0894B1B6813F4003FA7
:102A900003D06368002B00F09B81236813F0020FC2
:102AA00064D0834B9B6813F00C0F4DD0804B9B6818
:102AB00003F00C03082B42D0E368002B79D07C4A4A
:102AC000136843F00103136000F0E6FE0546784BFF
:102AD0001B6813F0020F63D100F0DEFE401B0228DA
:102AE000F5D9032077E1724A136843F48033136009
:102AF000B3E7B3F5A02F09D06D4B1A6822F48032EA
:102B00001A601A6822F480221A60A6E7684B1A68D5
:102B100042F480221A601A6842F480321A609CE7FC
:102B200000F0BAFE0546624B1B6813F4003FB4D0B8
:102B300000F0B2FE401B6428F5D903204BE15C4B4A
:102B40005B6813F4800FB7D1594B1B6813F0020F69
:102B500004D0E368012B01D001203CE1544A136802
:102B600023F0F803216943EAC1031360236813F0DB
:102B7000080F46D0636983B34D4A536F43F0010396
:102B8000536700F089FE0546494B5B6F13F0020F57
:102B900037D100F081FE401B0228F5D903201AE14D
:102BA000434A136823F0F803216943EAC103136021
:102BB000DCE73F4A136823F00103136000F06CFE6A
:102BC00005463B4B1B6813F0020FCFD000F064FEAC
:102BD000401B0228F5D90320FDE0354A536F23F04E
:102BE0000103536700F058FE0546314B5B6F13F04D
:102BF000020F06D000F050FE401B0228F5D903203A
:102C0000E9E0236813F0040F7ED0294B1B6C13F00E
:102C1000805F31D1264B1A6C42F080521A641B6CD3
:102C200003F080530193019B0125224B1B6813F491
:102C3000807F23D0A368012B34D0002B3CD11C4BC8
:102C40001A6F22F001021A671A6F22F004021A6743
:102C5000A368002B46D000F01FFE0646144B1B6FE6
:102C600013F0020F4FD100F017FE801B41F28833A2
:102C70009842F3D90320AEE00025D6E70D4A136849
:102C800043F48073136000F007FE0646094B1B688F
:102C900013F4807FCED100F0FFFD801B6428F5D9AE
:102CA000032098E0024A136F43F001031367CFE754
:102CB0000038024000700040052B09D0484B1A6FC5
:102CC00022F001021A671A6F22F004021A67BFE7A6
:102CD000434B1A6F42F004021A671A6F42F0010266
:102CE0001A67B5E700F0D8FD06463D4B1B6F13F0A1
:102CF000020F08D000F0D0FD801B41F288339842CB
:102D0000F3D9032067E0F5B9A369002B62D0344AF8
:102D1000926802F00C02082A5FD0022B19D0304AC8
:102D2000136823F08073136000F0B6FD04462C4B4B
:102D30001B6813F0007F47D000F0AEFD001B022897
:102D4000F5D9032047E0264A136C23F0805313641F
:102D5000DAE7234A136823F08073136000F09CFDC8
:102D600005461F4B1B6813F0007F06D000F094FD52
:102D7000401B0228F5D903202DE0E369226A1343A2
:102D8000626A43EA8213A26A5208013A43EA0243A2
:102D9000E26A43EA026343F00053114A5360136846
:102DA00043F08073136000F077FD04460C4B1B6802
:102DB00013F0007F06D100F06FFD001B0228F5D94B
:102DC000032008E0002006E0002004E00120704716
:102DD000012000E0002002B070BD0120FBE700BF31
:102DE00000380240F8B5254B9B6803F00C03042B18
:102DF00041D0082B01D02248F8BD204B5A6802F080
:102E00003F025B6813F4800F12D01C4B5968C1F36A
:102E1000881100231B48A1FB0001FEF791FF174B0F
:102E20005B68C3F3014301335B00B0FBF3F0F8BD13
:102E3000124B5B68C3F388131E4600275C01002514
:102E4000E41A65EB0705A90141EA9461A001001BA2
:102E500061EB0501CB0043EA5073C400A01943EBBA
:102E600007018B0243EA905384022046194600234F
:102E7000FEF766FFD3E70348F8BD00BF0038024005
:102E80000024F40040787D01002800F0A28070B595
:102E90000446524B1B6803F00F038B420CD24F4A7F
:102EA000136823F00F030B431360136803F00F0341
:102EB000994201D0012070BD236813F0020F17D092
:102EC00013F0040F04D0464A936843F4E053936030
:102ED000236813F0080F04D0414A936843F4604319
:102EE00093603F4A936823F0F003A0680343936024
:102EF0000D46236813F0010F31D06368012B20D0F9
:102F0000022B25D0364A126812F0020F63D03449E2
:102F10008A6822F0030213438B6000F0BDFC064672
:102F20002F4B9B6803F00C036268B3EB820F16D043
:102F300000F0B2FC801B41F288339842F0D90320A4
:102F400070BD274A126812F4003FE0D1012070BD25
:102F5000234A126812F0007FD9D1012070BD1F4BA7
:102F60001B6803F00F039D420CD21C4A136823F028
:102F70000F032B431360136803F00F039D4201D02E
:102F8000012070BD236813F0040F06D0144A936823
:102F900023F4E053E1680B439360236813F0080FB8
:102FA00007D00F4A936823F46043216943EAC103C1
:102FB0009360FFF717FF0A4B9B68C3F30313094A9B
:102FC000D35CD840084B1860002000F027FC00209C
:102FD00070BD01207047012070BD00BF003C024061
:102FE000003802407C6300086C000020014B186828
:102FF000704700BF6C000020F0B583B00446036842
:1030000013F0010F0CD0AF4B9A6822F400029A60C3
:103010009A68416B0A439A60436BC3B1002700E092
:103020000027236813F4002F15D0A64AD2F88C305D
:1030300023F44013E16B0B43C2F88C30E36BB3F520
:10304000801F06D0002B00F01B81002504E0012723
:10305000E7E70127F6E70025236813F4801F0FD068
:10306000984AD2F88C3023F44003216C0B43C2F809
:103070008C30236CB3F5800F00F0048103B9012577
:10308000236813F0807F00D0012713F0200F40F059
:10309000FB80236813F0100F0CD08A4BD3F88C20E0
:1030A00022F08072C3F88C20D3F88C20A16B0A43E5
:1030B000C3F88C20236813F4804F08D0814AD2F8DB
:1030C000903023F44033616E0B43C2F89030236894
:1030D00013F4004F08D07B4AD2F8903023F44023F9
:1030E000A16E0B43C2F89030236813F4803F08D0E0
:1030F000744AD2F8903023F44013E16E0B43C2F8C7
:103100009030236813F4003F08D06E4AD2F8903014
:1031100023F44003216F0B43C2F89030236813F06F
:10312000400F08D0674AD2F8903023F00303616C57
:103130000B43C2F89030236813F0800F08D0614A27
:10314000D2F8903023F00C03A16C0B43C2F89030FE
:10315000236813F4807F08D05A4AD2F8903023F0C5
:103160003003E16C0B43C2F89030236813F4007F06
:1031700008D0544AD2F8903023F0C003216D0B439D
:10318000C2F89030236813F4806F08D04D4AD2F80B
:10319000903023F44073616D0B43C2F89030236884
:1031A00013F4006F08D0474AD2F8903023F44063FC
:1031B000A16D0B43C2F89030236813F4805F08D0F0
:1031C000404AD2F8903023F44053E16D0B43C2F8EB
:1031D0009030236813F4005F08D03A4AD2F8903058
:1031E00023F44043216E0B43C2F89030236813F45C
:1031F000800F08D0334AD2F8903023F08063A16F5B
:103200000B43C2F89030236813F4001F0DD02D4AF1
:10321000D2F8903023F00063E16F0B43C2F8903096
:10322000E36FB3F1006F00F09980236813F0080F8B
:1032300000D0012513F4802F08D0224AD2F8903014
:1032400023F04073616F0B43C2F89030236813F48E
:10325000000F09D01B4AD2F8903023F08053D4F8E5
:1032600080100B43C2F89030002F79D12368B3F15E
:10327000007F75D0002D40F00781002003B0F0BD25
:103280000125E9E60127F9E60E4B1A6C42F080525F
:103290001A641B6C03F080530193019B0A4A136864
:1032A00043F48073136000F0F7FA0646064B1B6880
:1032B00013F4807F0AD100F0EFFA801B6428F5D95F
:1032C0000320DBE70038024000700040B34B1B6F67
:1032D00013F4407315D0226B02F44072934210D065
:1032E000AE4B1A6F22F44072196F41F480311967A6
:1032F000196F21F4803119671A671B6F13F0010FE2
:1033000012D1236B03F44072B2F5407F1DD0A34A63
:10331000936823F4F8139360A0490B6F226BC2F3F8
:103320000B0213430B67B4E600F0B6FA06469B4B5C
:103330001B6F13F0020FE4D100F0AEFA801B41F2D4
:1033400088339842F3D9032098E79448826822F49E
:10335000F812934919400A438260DDE7012564E7CA
:103360008E4A136823F08063136000F095FA0646D6
:103370008A4B1B6813F0006F06D000F08DFA801B9B
:103380006428F5D9032079E7236813F0010F13D0DF
:10339000636B8BB9814AD2F88430D2F884106068AC
:1033A00003F4403343EA801301F070610B43A168DA
:1033B00043EA0173C2F88430236813F4002F03D06A
:1033C000E26BB2F5801F43D013F4801F03D0236C4F
:1033D000B3F5800F3CD0236813F0807F11D06F4A83
:1033E000D2F88400D2F88410666823691B0443EA8B
:1033F000861300F07060034301F0E0410B43C2F814
:103400008430236813F0007F0DD0626823691B04A9
:1034100043EA8213E26843EA0263A26843EA027362
:103420005E4AC2F884305D4A136843F080631360DB
:1034300000F032FA0646594B1B6813F0006F7FF418
:1034400019AF00F029FA801B6428F4D9032015E78E
:10345000524AD2F88430D2F88410606803F44033C2
:1034600043EA8013E06843EA006301F0E0410B4364
:10347000C2F88430D2F88C3023F01F03616A01391E
:103480000B43C2F88C30A6E7444A136823F08053FC
:10349000136000F001FA0546404B1B6813F0005F13
:1034A00006D000F0F9F9401B6428F5D90320E5E6C1
:1034B000236813F4002F01D0E26B22B113F4801FB4
:1034C0001DD0236CDBB9354AD2F88830D2F8881089
:1034D000606903F4403343EA8013A06943EA006360
:1034E00001F0E0410B43C2F88830D2F88C3023F46D
:1034F000F853A16A013943EA0123C2F88C302368EA
:1035000013F4001F03D0E36FB3F1006F31D02368D1
:1035100013F0080F19D0214AD2F88810D2F8883059
:10352000606903F4403343EA801301F070610B4398
:10353000E16943EA0173C2F88830D2F88C3023F491
:103540004033E16A0B43C2F88C30144A136843F0ED
:103550008053136000F0A0F90446104B1B6813F071
:10356000005F19D100F098F9001B6428F5D90320F9
:1035700084E60A4AD2F88800D2F888106569236A7E
:103580001B0443EA851300F07060034301F0E0413F
:103590000B43C2F88830BAE700206FE600380240DB
:1035A000FFFCFF0FF0B583B0002437E0092600E0F0
:1035B000002606FA0EF6324302336C4E46F82320FC
:1035C0006B4B1A68EB4302EA03064F6817F4803F1F
:1035D00001D045EA0206664A1660526803EA02060E
:1035E0004F6817F4003F01D045EA0206604A566072
:1035F000926803EA02064F6817F4801F01D045EA7B
:1036000002065B4A9660D26813404E6816F4001FAB
:1036100001D045EA0203564AD36001340F2C00F270
:10362000A3800123A3400A6803EA0205AB42F4D158
:103630004A68122A18BF022A12D14FEAD40E0EF19C
:10364000080E50F82E2004F00706B6000F27B740EA
:1036500022EA07020F6907FA06F6324340F82E20E5
:1036600006684FEA440E032202FA0EF2D2431640D5
:103670004F6807F0030707FA0EF73E4306604E68EF
:10368000771E112E18BF012F01D9122E0FD1866877
:103690001640CF6807FA0EF73E438660466826EA72
:1036A00003034E68C6F30016A64033434360C36865
:1036B0001A408B6803FA0EF31A43C2604B6813F08A
:1036C000805FAAD02B4B5A6C42F480425A645B6CE8
:1036D00003F480430193019BA3089E1C234A52F8E4
:1036E000262004F003064FEA860E0F2606FA0EF691
:1036F00022EA0602204FB8423FF45AAF1F4EB042B2
:1037000022D006F58066B04220D006F58066B04231
:103710001ED006F58066B0421CD006F58066B04229
:103720001AD006F58066B04218D006F58066B04221
:1037300016D006F58066B04214D006F58066B04219
:103740003FF434AF0A2634E7012632E7022630E799
:1037500003262EE704262CE705262AE7062628E777
:10376000072626E7082624E703B0F0BD003801400D
:10377000003C0140003802400000024000040240CA
:1037800012B909048161704781617047436931EA68
:10379000030301D081617047090481617047000013
:1037A00010B582B01B4B1A6C42F080521A641B6C2D
:1037B00003F080530193019B174A136843F480334D
:1037C000136000F069F80446134B5B6813F4803F04
:1037D00008D100F061F8001BB0F57A7FF4D903201E
:1037E00002B010BD0C4A136843F40033136000F0BC
:1037F00053F80446084B5B6813F4003F07D100F010
:103800004BF8001BB0F57A7FF4D90320E8E70020DD
:10381000E6E700BF003802400070004010B50446E3
:103820000E4B18784FF47A73B3FBF0F30C4A106820
:10383000B0FBF3F0FEF76EFE68B90F2C01D9012042
:1038400010BD002221464FF0FF30FEF725FE054B4C
:103850001C60002010BD012010BD00BF64000020CE
:103860006C0000206800002008B50320FEF702FE6F
:103870000020FFF7D3FFFEF7C7FD002008BD0000C2
:10388000034A1168034B1B780B441360704700BF59
:103890005C02002064000020014B1868704700BFE4
:1038A0005C02002038B50446FFF7F6FF0546B4F188
:1038B000FF3F02D0044B1B781C44FFF7EDFF401B79
:1038C0008442FAD838BD00BF6400002010B40F4A0B
:1038D000D2F8883043F47003C2F888300C4B196872
:1038E00041F001011960002098601C6809492140DD
:1038F000196009495960196821F480211960D8605C
:103900004FF0006393605DF8044B704700ED00E0FA
:1039100000380240FFFFF6FE1030002408B50022F8
:103920000F49104801F09EFD70B90F490D4801F094
:10393000BDFD60B90D490B4802F0EAFB50B90948DA
:1039400001F0CAFD48B908BDFEF740FDEDE7FEF7FE
:103950003DFDEFE7FEF73AFDF1E7FEF737FDF2E751
:103960007000002060020020E0000020D000002055
:1039700008B5FEF717FC08BD10B588B00023039307
:1039800004930593069307930368B3F1A04F01D006
:1039900008B010BD184C236B43F001032363236B65
:1039A00003F001030093009B4FF4C05303930223E1
:1039B0000493032306930A23079303A90F48FFF7F1
:1039C000F1FD636B43F080036363636B03F080037B
:1039D0000193019B636C43F480436364636C03F461
:1039E00080430293029B002211464320FEF754FDC0
:1039F0004320FEF781FDCBE7003802400000024083
:103A000008B500F57171D0F8000401F07EFD08BD25
:103A100008B5C1EBC10293000344D3F80822D0F8E3
:103A2000000401F09FFD08BD08B5C1EBC102930081
:103A300003449A6CD0F8000401F0DEFD08BD08B51F
:103A4000D0F8000401F07EFE08BD10B50446C3683E
:103A50002BB1022B0DD0FEF7B9FC012100E00021B3
:103A6000D4F8000401F05CFED4F8000401F030FE4C
:103A700010BD0121F4E7000010B50446D0F80004A1
:103A800001F051FE2268D2F8003E43F00103C2F873
:103A9000003E236A23B1034A136943F0060313610E
:103AA00010BD00BF00ED00E008B5D0F8000401F043
:103AB00043FE08BD08B5D0F8000401F053FE08BD70
:103AC00008B5D0F8000401F04BFE08BD08B5D0F8E9
:103AD000000401F049FE08BD08B5D0F8000401F06B
:103AE00045FE08BD03780BB10020704710B50346B2
:103AF0001548C0F80034C3F898024FF0A0430360A3
:103B0000062343600222C260002303618261C36115
:103B100003624362C362036300F0F3F980B90A4CA5
:103B20008021204600F043FF40220021204600F083
:103B30001AFF80220121204600F015FF002010BD51
:103B4000FEF744FCEBE700BFFC040020D0F89832FD
:103B500011F0800F08D101F07F01C1EBC1018A0093
:103B6000134493F8FE01704701F07F01C1EBC101DE
:103B70008A00134493F83E00704708B5D0F89802C5
:103B800000F046FE08BD000010B5044611B1012941
:103B900016D010BD036A5BB92268D2F8003E23F04C
:103BA0000103C2F8003ED4F8000401F0C5FD10BDC9
:103BB000FFF7DEFE0C4A136923F006031361EBE7FF
:103BC0000268D2F8003E43F00103C2F8003ED0F88C
:103BD000000401F0A8FD236A23B1034A136943F0EE
:103BE0000603136110BD00BF00ED00E018B102280C
:103BF00003D002207047002070470120704708B5AD
:103C0000D0F8980200F00EFAFFF7F0FF08BD10B5EB
:103C10001C4613462246D0F8980200F053FDFFF7E9
:103C2000E5FF10BD08B5D0F8980200F08CFDFFF755
:103C3000DDFF08BD08B5D0F8980200F01CFEFFF7C4
:103C4000D5FF08BD08B5D0F8980200F055FEFFF783
:103C5000CDFF08BD08B5D0F8980200F01FFDFFF7B2
:103C6000C5FF08BD08B5D0F8980200F0DAFDFFF7EF
:103C7000BDFF08BD08B5D0F8980200F09BFDFFF726
:103C8000B5FF08BD12230B80004870479C00002040
:103C900004230B8000487047B00000200C230B80E9
:103CA00000487047900000200023934216D230B4A1
:103CB0000BE0373401F8134000015C0001340025AB
:103CC0000D550133DBB2934206D2040F092CF0D814
:103CD000303401F81340EFE730BC70477047000004
:103CE00038B50A4B186804331C6804331B68C018C5
:103CF00000D138BD064D0822A91CFFF7D5FF0422CC
:103D000005F112012046FFF7CFFFF2E720F4F01F84
:103D1000B400002008B51A230B80FFF7E1FF01482B
:103D200008BD00BFB400002008B50A4628B1054907
:103D3000054802F040F8034808BD0249024802F075
:103D40003AF8F8E700090020BC63000810B5044CFD
:103D50000A462146034802F02EF8204610BD00BF57
:103D600000090020A863000808B50A4628B10549E3
:103D7000054802F020F8034808BD0249024802F055
:103D80001AF8F8E7000900208C63000808B50A4615
:103D900028B10549054802F00EF8034808BD02495C
:103DA000024802F008F8F8E70009002098630008CC
:103DB000002070470020704770B505460E46084C3D
:103DC0000146204602F0B3F93268064B1A602946D4
:103DD0000548FCF787FA204602F0C9F9002070BDBB
:103DE0006002002000120020041A002010B5064CCA
:103DF00000220649204602F092F90549204602F0C9
:103E000096F9002010BD00BF6002002004120020BF
:103E1000000A002010B5054C0A460146204602F073
:103E20007EF9204602F089F910BD00BF6002002033
:103E30002DE9F04782B0D0F80080CA00521A9300F2
:103E400003445A6D1B6D9A4255D8C1469B1AC1EB6B
:103E5000C104A2000244526C934200D81A460C4698
:103E6000074602F1030A4FEA9A0A15E006F1030A2F
:103E70004FEA9A0AE3001B1B9D003D44A96C3B7C62
:103E80000093B3B2E2B2404601F0CCF8AB6C3344DD
:103E9000AB646B6D1E446E6509EB441303F5106350
:103EA0009B699BB29A4512D8E3001B1B9A003A44C7
:103EB000516D136D99420AD24BB15B1AC4EBC40128
:103EC0008A003A44566CB342D0D81E46CEE7E3008F
:103ED0001B1B980007443A6D7B6D9A420FD804F083
:103EE0000F040123A340D8F8344824EA0304C8F897
:103EF0003448002000E0012002B0BDE8F087002037
:103F0000FAE7F0B58BB0002800F08A80044690F8FC
:103F1000BD33F3B1032384F8BD33206800F038FECD
:103F2000254655F8107B6E460FCD0FC60FCD0FC638
:103F300095E8030086E80300231D0ECB384600F009
:103F40006DFD58B1022384F8BD33012528460BB01E
:103F5000F0BD80F8BC33FFF70FFDDBE700212068E0
:103F600000F01CFE002315E0D900C81A820022448C
:103F7000012082F83D0082F83C30A2F84230002057
:103F800082F83F0050649064CA1A91002144086589
:103F90000133DBB26568AB42E6D3002315E0D800FD
:103FA000C11A8A002244002182F8FD1182F8FC31F6
:103FB00082F8FF11C2F80412C2F80812C21A900067
:103FC0002044C0F810120133DBB29D42E7D82546E9
:103FD00055F8107B6E460FCD0FC60FCD0FC695E876
:103FE000030086E80300231D0ECB384600F01CFEBC
:103FF000054660B9002384F83830012384F8BD33C6
:10400000636A012B08D0206801F09FF99EE7022324
:1040100084F8BD33012599E7204600F0CDFCF2E796
:10402000012593E790F8BC33012B01D102207047A2
:1040300010B50446012380F8BC33006801F079F91B
:10404000206800F09FFD002084F8BC0310BD000034
:1040500070B505460E460368196C03EB461303F56D
:104060003064A3680269012A07D0364A914257D0CA
:10407000F1B2FFF7CDFC002070BD13F0080F14D093
:10408000314A914205D913F4004F02D04FF4004356
:10409000A3602846FFF7B4FC05F57172012128687A
:1040A00001F0B0F90823A360E5E713F0200F30D149
:1040B00013F0280FDFD1244A914202D913F4004FA4
:1040C0002AD1F200921B93002B44D3F804222169D9
:1040D000C1F31201521AC3F81422D3F80412D3F810
:1040E00008220A44C3F80822F1B22846FFF790FCE0
:1040F000002EC0D1C6EBC606B3002B44D3F8103255
:10410000002BB8D105F571720121286801F07AF908
:10411000B1E72023A360AEE74FF40043A360AAE712
:1041200013F4004F09D113F0200F01D02023A36016
:10413000F1B22846FFF76CFC9DE74FF40043A36003
:1041400099E700BF0A31544F0A30544F38B504463E
:1041500003681D6C03EB411101F530618A68036946
:10416000012B0DD0124B9D4214D02046FFF748FC86
:10417000104B9D4202D92369012B12D0002038BD7B
:104180000C4B9D42F1D912F4004FEED04FF4004396
:104190008B60EAE712F4004FE7D04FF400438B60E6
:1041A000E3E704F571720121206801F02BF9E5E7DE
:1041B0000A31544F0A30544F2DE9F84F0446056830
:1041C000284601F0FEF808B1BDE8F88FA84607467A
:1041D000206801F0C6F80028F6D0206801F0C1F888
:1041E00010F0020F04D02268536903F002035361F8
:1041F000206801F0B6F810F4002F40F092803E469F
:10420000206801F0AEF810F4802F40F0DC802068C8
:1042100001F0A7F80028C0F24A81206801F0A1F857
:1042200010F4006F0AD0D5F8083813F0010F40F0F1
:1042300058812268536903F400635361206801F0D8
:1042400090F810F0006F15D02268536903F00063F6
:10425000536194F8F433002B40F04781012184F836
:10426000F41323685B6DC3F38303C4F8F83320466B
:10427000FFF78AFC206801F074F810F4805F40F0CA
:104280003881206801F06DF810F4005F40F08A81F9
:10429000206801F066F810F0100F14D022689369BE
:1042A00023F0100393612F6A07F00F08C7F343430D
:1042B000022B00F09481062B00F0B28122689369F2
:1042C00043F010039361206801F04BF810F0080FE1
:1042D00040F0BA81206801F044F810F4801F40F0EB
:1042E000BC81206801F03DF810F4001F40F0BF8150
:1042F000206801F036F810F0804F40F0C28120684D
:1043000001F02FF810F0040F3FF45EAF23685D68F2
:1043100015F0040F40F0BE8123685A6815435D60B4
:1043200052E7206801F021F881463E4624E008EB80
:1043300046130122C3F8082B31462046FFF788FEBA
:1043400029E031462046FFF701FF08EB461308221B
:10435000C3F8082B22E008EB46132022C3F8082BF1
:104360001AF4005F05D008EB46134FF40052C3F86F
:10437000082B01364FEA5909B9F1000F3FF440AF5D
:1043800019F0010FF5D0F1B2206800F0FEFF82466F
:1043900010F0010FCBD11AF0080FD2D11AF0100F84
:1043A00004D008EB46131022C3F8082B1AF0200F94
:1043B000D6D02369012BCED104F57172012120687A
:1043C00001F020F8C7E7206800F0D7FF81463E469D
:1043D0002EE0F200921B93002344596C9A6C0A441D
:1043E0009A6448E01AF0080F04D008EB461308223C
:1043F000C3F808291AF0100F04D008EB4613102256
:10440000C3F808291AF0400F04D008EB46134022E5
:10441000C3F808291AF0020F04D008EB4613022251
:10442000C3F808291AF0800F3CD101364FEA590928
:10443000B9F1000F3FF4EBAE19F0010FF5D05FFAC0
:1044400086FB5946206800F0A9FF824610F0010F54
:10445000C8D006F00F03012101FA03F2D8F834386E
:1044600023EA0203C8F8343808EB4613C3F80819E6
:1044700023698B42ADD059462046FFF7D5FA236910
:10448000012BAFD1002EADD1C6EBC6029300234461
:104490001B6D002BA6D104F571720121206800F07C
:1044A000B1FF9FE731462046FFF7C2FCBDE7D5F8D4
:1044B000043823F00103C5F8043894F8F433012BD1
:1044C00008D02046FFF7F0FA2268536903F0004352
:1044D0005361A2E6002184F8F4132046FFF754FB51
:1044E000F2E72046FFF7C8FAA3E62046FFF7C4FA32
:1044F000C0E605F50069D9F8043023F00103C9F8D6
:1045000004301021206800F061FB14E008EB471331
:104510004FF67F31C3F80819D3F8002922F40012AE
:10452000C3F80029C3F8081BD3F8002B22F40012AB
:10453000C3F8002B013763689F42E7D3D9F81C30DA
:1045400043F00113C9F81C30236BEBB1D9F8843068
:1045500043F00B03C9F88430D9F8443043F00B031F
:10456000C9F84430D5F8003823F4FE63C5F80038A4
:1045700004F57172217C206800F044FF22685369C1
:1045800003F4805353617CE6D9F8142042F22B03E4
:104590001343C9F81430D9F8103043F00B03C9F8AD
:1045A0001030DFE7206800F011FF206800F016FCF3
:1045B00090B90023E3602768FEF718FD227B0146CF
:1045C000384600F069FA2046FFF73FFA226853693F
:1045D00003F4005353615BE60323E360EBE747F624
:1045E000F0731F423FF46AAE4FEAC80AAAEB080311
:1045F0004FEA8309A1443F09C7F30A02D9F8081218
:10460000284600F017FEC7F30A07D9F808323B44E2
:10461000C9F80832D9F814321F44C9F814724DE6AB
:10462000082204F57171284600F004FEC7F30A174A
:104630004FEAC803A3EB08018A002244D2F81432DF
:104640001F44C2F8147239E62046FFF7F8F92268D1
:10465000536903F0080353613CE6F1B22046FFF7CB
:104660002FFA2268536903F48013536139E6F1B2DB
:104670002046FFF71FFA2268536903F400135361C1
:1046800036E62046FFF722FA2268536903F080439A
:10469000536134E62046FFF71FFA3DE690F8BC333D
:1046A000012B01D10220704710B50446012380F888
:1046B000BC3380F83810006800F02BFE002084F82E
:1046C000BC0310BDF8B511F0800F1ED101F00F062C
:1046D000F500AF1BBC00274604F5FC740444043409
:1046E0003E460644002586F8FD5101F00F01217079
:1046F000A260E370627802B1E180022B14D090F8DE
:10470000BC33012B13D10220F8BD01F00F06F500D8
:10471000AF1BBC0027463834044404343E460644EC
:10472000012586F83D50E0E700232371E7E70546C1
:10473000012380F8BC332146006800F05FFB0020B5
:1047400085F8BC03F8BD38B511F0800F17D101F022
:104750000F04E200151BAB001D4603F5FC73034478
:1047600004332C460444002284F8FD2101F00F019B
:10477000197090F8BC23012A10D1022038BD01F035
:104780000F04E200151BAB001D463833034404330D
:104790002C460444012284F83D20E7E70446012228
:1047A00080F8BC231946006800F070FB002084F8F4
:1047B000BC0338BD70B501F00F05EE00711B8C0015
:1047C00004F5FC740444211D761BB4000444C4F8B1
:1047D0000822C4F810320023C4F8143284F8FD31E2
:1047E00084F8FC510369012B06D065B1DAB2006888
:1047F00000F02CFC002070BDC5EBC506B4000444DD
:10480000C4F80C22F1E7DAB2006800F087FBF1E7A8
:1048100001F00F01C1EBC1018B001844D0F8140264
:10482000704770B501F00F05EE00711B8C00383435
:104830000444211D761BB4000444A26423650023B4
:104840006365012384F83D3084F83C500369012BF3
:1048500006D05DB1DAB2006800F0F8FB002070BD50
:10486000C5EBC506B4000444E264F2E7DAB20068BE
:1048700000F054FBF2E738B501F00F0543689D42A4
:1048800038D811F0800F15D1CA00541AA3001C4665
:1048900003F5FC730344043322460244002182F8EA
:1048A000FD1101229A701D7090F8BC23012A0DD1D0
:1048B000022038BDEA00511B8B00194638330344EF
:1048C00004330144012281F83D20EAE70446012235
:1048D00080F8BC231946006800F0C0FC1DB1002020
:1048E00084F8BC0338BD04F57172217C206800F0A7
:1048F00089FDF4E7012038BD01F00F0342689342BF
:104900002FD810B511F0800F14D1DA00D41AA100FD
:104910000C4601F5FC71014404310444002284F882
:10492000FD2100228A700B7090F8BC33012B0DD151
:10493000022010BDDA00D41AA1000C46383101441F
:1049400004310444012284F83D20EAE704460123AF
:1049500080F8BC33006800F0AEFC002084F8BC0393
:1049600010BD0120704730B40468606A29B10D465B
:10497000A36A00EB134000230CE040EA0240A0626F
:1049800012E003F1400104EB8101496800EB1140A2
:104990000133DBB2691E8B42F3D340EA024005F1DA
:1049A0003F0104EB81014860002030BC7047036880
:1049B0005962002070470000024603680121C0F8D8
:1049C000FC13002082F8F4039A6942F000629A61B5
:1049D000596D024A0A435A65704700BF0300001030
:1049E000002301330C4A934211D80269002AF8DAF5
:1049F000036943F00103036100230133064A934234
:104A000007D8026912F0010FF7D100207047032088
:104A100070470320704700BF400D030084B010B5FD
:104A2000044603A880E80E00089B012B11D0E36820
:104A300043F04003E3602046FFF7D2FFA36B43F44B
:104A40008033A363069B012B1BD0BDE8104004B04C
:104A50007047A36B23F48033A363E2680D4B1340CC
:104A6000E360E36823F44013E3600F9B012B03D062
:104A70002046FFF7B5FFE5E7E36843F48013E36002
:104A8000F6E7A36843F00603A360A36843F020039E
:104A9000A360DAE7BFFFBDFF032A0AD00921C2687D
:104AA00022F47052C260C36843EA8123C3600020CD
:104AB0007047274B0B44274A934239D9264B0B4466
:104AC000264A934236D9264B0B44264A934233D981
:104AD000254B0B4402F5C332A03293422ED9234B0F
:104AE0000B44234A93422BD9224B0B4402F59222CA
:104AF00002F57872934225D91F4B0B4402F5C3226D
:104B000002F5207293421FD91C4B0B4402F5B712D9
:104B100002F55872934219D9194B0B4402F512222F
:104B200002F5F862934201D90621B8E70721B6E7FA
:104B30000F21B4E70E21B2E70D21B0E70C21AEE75B
:104B40000B21ACE70A21AAE70921A8E70821A6E77B
:104B5000405327FFFF340C00401E1BFF3F420F0055
:104B600000DC0BFF7F4F1200808CF9FE60B6E5FE83
:104B70005FE3160000D3CEFEC05BB3FE00CA91FE19
:104B8000E05459FE836843F00103836000207047BE
:104B9000836823F0010383600020704708B5C36871
:104BA00023F0C043C360012909D069B9C36843F049
:104BB0008043C3603220FEF775FE002008BDC36845
:104BC00043F00053C360F5E7012008BD890141F0BF
:104BD0002001016100230133054A934205D802698F
:104BE00012F0200FF7D1002070470320704700BF5C
:104BF000400D03001023036100230133054A934253
:104C000005D8026912F0100FF7D100207047032079
:104C1000704700BF400D0300D0F800381943C0F8BA
:104C2000001800207047000084B02DE9F0410446D0
:104C300007A880E80E002546002306E003F14002A5
:104C400004EB82020021516001330E2BF6D9119B37
:104C500083BBA36B23F40013A363236843F04003D7
:104C60002360236843F0800323600023C4F8003EE0
:104C700004F50066D4F80038C4F800380C9B012B0A
:104C80001DD0032B27D003212046FFF7C5FF10219D
:104C90002046FFF79BFF804608B14FF001082046F1
:104CA000FFF7A8FF08B14FF00108002333617361DB
:104CB000F36127E0A36B43F40013A363D5E7099BDB
:104CC00023B900212046FFF7A7FFE0E70121204696
:104CD000FFF7A2FFDBE7099B23B900212046FFF77E
:104CE0009BFFD4E701212046FFF796FFCFE7C3B92A
:104CF0004FF00060C2F8000900220A614FF67F32CF
:104D00008A60013307998B4210D205EB431202F5FA
:104D10001061D2F800090028E9DB0020C2F8000980
:104D2000EAE74FF09040C2F80009E5E700230AE007
:104D3000BBB14FF09047C2F8007B002202614FF6F2
:104D40007F32826001338B4210D205EB431202F5B1
:104D50003060D2F8007B002FEADB0027C2F8007B2E
:104D6000EBE74FF00067C2F8007BE6E7336923F416
:104D7000807333610A9B012B1BD00022A2616FF06C
:104D8000804262611BB9A36943F01003A361A26969
:104D90000E4B1343A3610D9B1BB1A36943F00803A2
:104DA000A361119B012B0BD04046BDE8F04104B03C
:104DB0007047074A3263316B064A0A433263DCE7C5
:104DC000A269054B1343A361EEE700BF00383C80A6
:104DD000000180000300010004000040D0F8083802
:104DE00013F0060305D0062B18BF022B03D10320B6
:104DF00070470020704700207047000070B40B78A7
:104E00004A78012A20D0D0F81C2803F00F0601248C
:104E1000B44042EA0442C0F81C2800EB4310D0F82A
:104E2000003B13F4004F0CD1D0F8002B8B68C3F378
:104E30000A03C97843EA81431343134A1A43C0F86B
:104E4000002B002070BC7047D0F81C4803F00F0600
:104E5000B24092B22243C0F81C2800EB4310D0F8B5
:104E6000002912F4004FECD1D0F800498A68C2F34F
:104E70000A02C97842EA814242EA83532343024A42
:104E80001A43C0F80029DCE70080001070B40C78E9
:104E90004B78012B1FD0D0F83C5804F00F060122AC
:104EA00002FA06F625EA0645C0F83C58D0F81C5828
:104EB000097801F00F018A4025EA0242C0F81C2857
:104EC00000EB4410D0F8002B124B1340C0F8003B0D
:104ED000002070BC7047D0F83C6804F00F0203FA61
:104EE00002F292B226EA0202C0F83C28D0F81C284E
:104EF000097801F00F018B409BB222EA0303C0F84E
:104F00001C3800EB4410D0F80029034B1340C0F8C4
:104F10000039DDE70078F3EF007833EC70B40B78FC
:104F20004C78012C24D000EB431000F530631D6950
:104F30003A4C2C401C611D69394C2C401C614C6959
:104F40000CB18C684C611C6944F400241C611C6920
:104F50008D68C5F312052C431C61012A59D0D0F885
:104F6000003B43F00443C0F8003B002070BC704796
:104F70004C6954BB00EB4314D4F81069284D3540FC
:104F8000C4F81059D4F8105945F40025C4F8105944
:104F9000D4F81069214D3540C4F81059012A30D099
:104FA0004A694AB1D0F83428097801F00F04012188
:104FB000A1400A43C0F8342800EB4310D0F8002980
:104FC00042F00442C0F80029CFE700EB431404F597
:104FD00010642669114D354025612669104D354014
:104FE00025614E698D68AE4200D94D61256945F451
:104FF0000025256125694E69C6F3120635432561F2
:10500000CCE70A69002AD7D000EB4311C1F8142974
:10501000D2E7CA68002AA2D05A61A0E70000F8FFD0
:10502000FFFF07E070B49DF80C4064B903339E089D
:1050300007E000EB023303F5805351F8045B1D6079
:105040000134B442F5D3002070BC7047F0B583B092
:105050000C784B78012B29D000EB441404F5306315
:105060001E69714D35401D611E69704D35401D61D1
:105070004D69002D40F0AA801D698E68C6F31206A6
:1050800035431D611D6945F400251D61012A00F0AD
:10509000B280CB78012B00F0B480D4F8003B43F011
:1050A0000443C4F8003B002003B0F0BD4B69002B63
:1050B0003BD100EB4413D3F810695C4D3540C3F885
:1050C0001059D3F8105945F40025C3F81059D3F8F6
:1050D0001069554D3540C3F81059012A57D0CB7887
:1050E000012B0BD04B694BB1D0F834380D7805F05B
:1050F0000F060125B5402B43C0F83438CB78012B7F
:105100004DD000EB4414D4F8003943F00443C4F804
:105110000039CB78012BC6D114460B46C9681A78E2
:105120009B8A0094FFF77EFFBDE700EB4413D3F8A2
:1051300010693D4D3540C3F81059D3F810693B4D07
:105140003540C3F81059D3F810694D698F683D4454
:10515000013DB5FBF7F5364F07EAC5453543C3F8C2
:105160001059D3F810594E69C6F312063543C3F8E7
:10517000105903F51063CD78012DAED11D6925F0CE
:10518000C0451D611D6945F000551D61A5E70B690E
:10519000002BB3D000EB4415C5F81439AEE7D0F8B6
:1051A000083813F4807F08D100EB4415D5F8003996
:1051B00043F00053C5F80039A3E700EB4415D5F8D8
:1051C000003943F08053C5F800399AE78E683544BA
:1051D000013DB5FBF6F51E69154F07EAC5473E438D
:1051E0001E611F698E68ADB206FB05F5C5F3120599
:1051F0003D431D614AE7CA68002A3FF44AAF5A613D
:1052000047E7D0F8083813F4807F06D1D4F8003B84
:1052100043F00053C4F8003B3FE7D4F8003B43F0B1
:105220008053C4F8003B38E70000F8FFFFFF07E0B9
:105230000000F81F03329208002393420CD210B4EE
:1052400000F58054246841F8044B01339342F7D3AE
:1052500008465DF8044B7047084670470B784A785B
:10526000012A14D000EB4310D0F8002B002A06DBF3
:105270002BB1D0F8003B23F08043C0F8003BD0F8BE
:10528000003B43F40013C0F8003B0020704700EBE4
:105290004310D0F80029002A06DB2BB1D0F80039E2
:1052A00023F08043C0F80039D0F8003943F40013EC
:1052B000C0F80039E9E70B784A78012A0ED000EBF4
:1052C0004310D0F8003B23F40013C0F8003BCB7828
:1052D000023BDBB2012B15D90020704700EB4310D5
:1052E000D0F8003923F40013C0F80039CB78023B22
:1052F000DBB2012BF0D8D0F8003943F08053C0F86E
:105300000039E9E7D0F8003B43F08053C0F8003B98
:10531000E2E7D0F8003823F4FE63C0F80038D0F894
:105320000038090101F4FE610B43C0F80038002089
:10533000704708B5D0F8043823F00203C0F80438E9
:105340000320FEF7AFFA002008BD08B5D0F80438F6
:1053500043F00203C0F804380320FEF7A3FA00204C
:1053600008BD4269806910407047D0F8183800F5D0
:105370000060C0691840000C7047D0F8183800F57C
:105380000060C069184080B2704700EB4111D1F84D
:10539000082B00F5006040691040704710B4D0F849
:1053A0001028D0F8343801F00F04E340DB01DBB201
:1053B000134300EB4111D1F8080918405DF8044B84
:1053C0007047406900F0010070470000D0F80029E4
:1053D0000B4B1340C0F8003900F500639A6802F0E7
:1053E0000602042A05D05A6842F480725A600020EE
:1053F0007047D0F8002942F00302C0F80029F2E714
:1054000000F8FFFF10B4046C154B9C4203D9D0F890
:10541000003B002B16DB0024C0F8104BD0F8104BDB
:1054200044F40024C0F8104BD0F8104B44F018049A
:10543000C0F8104BD0F8104B44F0C044C0F8104BEB
:10544000012903D000205DF8044B7047C0F8142BED
:10545000D0F8003B43F08023C0F8003BF2E700BFE8
:105460000A30544F08B590B10346D0F88C0210B101
:105470000020C3F88C0209B1C3F88812012183F817
:1054800074121A701846FEF72DFB002008BD05485F
:10549000FBF7CCF80448FBF7C9F80A20FBF7F2F851
:1054A000022008BDD4630008DC63000808B519B108
:1054B000C0F88C12002008BD0548FBF7B7F8054876
:1054C000FBF7B4F80A20FBF7DDF8022008BD00BFA7
:1054D000D4630008F463000808B5FEF790FB0020D1
:1054E00008BD08B5D0F88C3223B11B68984718B1B5
:1054F000022008BD022008BD002008BD08B5D0F874
:105500008C325B689847002008BD38B5044600F52A
:105510002075284600F049F90123C4F86C32B4F82C
:105520008632C4F8703294F8801201F01F03012B08
:105530000ED03BB1022B10D001F080012046FEF7C7
:1055400079FB03E02946204600F0C7FA002038BD69
:105550002946204600F0F5FAF8E72946204600F0F3
:1055600020FBF3E738B50446A9BB1046D4F86C32EB
:10557000032B03D0052B25D0002038BDD4F84C31A7
:10558000D4F8502193420DD99B1AC4F84C319A4259
:1055900006D99AB20146204600F04DFC002038BDE5
:1055A00092B2F7E7D4F88C321B691BB194F87422DD
:1055B000032A04D0204600F046FC002038BD2046D7
:1055C0009847F7E70025C4F86C5229462046FEF7B5
:1055D00031FB284638BD0A46D0F88C329B694BB166
:1055E00090F87412032901D0022038BD1146984763
:1055F000002038BD022038BD10B50446002956D120
:105600001046D4F86C32022B09D0002B18BF042BA3
:1056100044D094F87832012B45D0002010BD236A85
:10562000626A93421BD8E169B1FBF2F302FB1313E8
:105630002BB98A4203D8D4F8703299421DD3D4F8DA
:105640008C32DB681BB194F87422032A23D08021AA
:105650002046FEF7EFFA204600F000FCD9E79A1A40
:10566000226292B20146204600F0CEFB00231A4689
:1056700019462046FEF7FEFACBE7002211462046E7
:1056800000F0C2FB0021C4F870120B460A46204607
:10569000FEF7F0FABDE720469847D8E7802120467C
:1056A000FEF7C8FAB5E7002084F8780210BD0A4674
:1056B000D0F88C325B694BB190F87412032901D099
:1056C000022010BD11469847002010BD022010BDD9
:1056D00070B50446402300221146FEF798FA0125D2
:1056E000C4F844514026C4F850613346002280215A
:1056F0002046FEF78CFAA561666284F87452002396
:10570000C4F86C326360C4F87C32D4F890322BB1A8
:10571000D4F88C325B68002120469847002070BD89
:1057200001740020704790F8743280F875320423B9
:1057300080F874320020704790F8753280F8743227
:105740000020704708B590F87432032B01D0002078
:1057500008BDD0F88C32DB69002BF8D09847F6E70B
:1057600000207047002070470020704708B50122D4
:1057700080F87422D0F88C2252680179904700207A
:1057800008BD002302E00133DBB201300278002AB9
:10579000F9D11846704708B54B88012B00D008BDD9
:1057A000C0F87C3200F04FFBF9E70B7803704B78C0
:1057B00043708B78CA7803EB022343800B794A79D4
:1057C00003EB022383808B79CA7903EB0223C38026
:1057D000704710B504468021FEF72CFA00212046C0
:1057E000FEF728FA10BD30B583B005460C464A884E
:1057F000130A013B0E2B00F29180DFE803F01B231C
:10580000378F8F73808F8F8F8F8F8F8F0800D0F897
:105810008832DB690DF10601007C9847BDF806204F
:1058200012B1E388002B7DD1E388002B00F0848047
:1058300003B030BDD0F888321B680DF10601007C42
:105840009847EBE7037C43B9D0F88C329B6A0DF1A3
:105850000600984702234370E0E7D0F88C32DB6AF9
:105860000DF10600984702234370D7E7D2B2052A0C
:1058700034D8DFE802F0030B131B232BD0F8883257
:105880005B680DF10601007C9847C7E7D0F88832C5
:105890009B680DF10601007C9847BFE7D0F888327D
:1058A000DB680DF10601007C9847B7E7D0F8883235
:1058B0001B690DF10601007C9847AFE7D0F88832EC
:1058C0005B690DF10601007C9847A7E7D0F88832A4
:1058D0009B690DF10601007C98479FE72146FFF781
:1058E00078FFA5E7037C33B9D0F88C325B6B0DF100
:1058F0000600984792E72146FFF76BFF98E7037C85
:1059000043B9D0F88C321B6B0DF106009847072382
:10591000437083E72146FFF75CFF89E72146FFF7E5
:1059200058FF85E79A4228BF1A46ADF8062001467F
:10593000284600F05CFA77E7284600F084FA77E71B
:1059400038B504468B88F3B9CB88E3B94B887F2BF5
:1059500019D803F07F0590F87432032B0CD080F82F
:1059600076522946FEF776F9204600F06CFA35B1FA
:10597000022384F8743238BDFFF72BFF38BD0123B2
:1059800084F8743238BD2046FFF723FF38BD00008D
:1059900038B504460D468978284B197001290ED870
:1059A00090F87432022B0ED0032B21D02946FFF73A
:1059B00010FF224B19782046FFF7A0FD38BD29467D
:1059C000FFF707FF38BD81B14160032380F87432CF
:1059D000FFF787FD022803D0204600F034FA38BDD7
:1059E00029462046FFF7F5FE38BD00F02CFA38BDF9
:1059F00089B1436899421DD0D9B2FFF77FFD0F4BA3
:105A0000197861602046FFF76CFD02280DD0204612
:105A100000F019FA38BD022380F874324160FFF7B4
:105A20006DFD204600F00FFA38BD29462046FFF7ED
:105A3000D0FE38BD00F007FA38BD00BF18020020C4
:105A400008B5CB88012B0BD190F874329BB1022B97
:105A500009D9032B0FD10122011D00F0C8F908BD9F
:105A6000FFF7B7FE08BD0146002341F8083F0122B9
:105A700000F0BDF908BDFFF7ACFE08BD08B590F811
:105A80007432013B022B12D8CB88022B0CD101239C
:105A9000C360D0F87C320BB10323C360022200F153
:105AA0000C0100F0A4F908BDFFF793FE08BDFFF755
:105AB00090FE08BD08B590F87432013B022B09D85E
:105AC0004B88012B00D008BD0023C0F87C3200F0C9
:105AD000BAF908BDFFF77DFEF5E708B50B7803F0CE
